:100000000C9462000C948A000C948A000C948A0070
:100010000C948A000C948A000C948A000C948A0038
:100020000C948A000C948A000C948A000C948A0028
:100030000C948A000C948A000C948A000C948A0018
:100040000C9407020C948A000C9477020C945102D1
:100050000C948A000C948A000C948A000C948A00F8
:100060000C948A000C948A000000000024002700F1
:100070002A0000000000250028002B0000000000DE
:1000800023002600290004040404040404040202DA
:100090000202020203030303030301020408102007
:1000A0004080010204081020010204081020000012
:1000B0000008000201000003040700000000000027
:1000C0000000870311241FBECFEFD8E0DEBFCDBFF5
:1000D00011E0A0E0B1E0E2E8F7E002C005900D9287
:1000E000A033B107D9F721E0A0E3B1E001C01D9230
:1000F000A63DB207E1F710E0C2E6D0E004C02197C8
:10010000FE010E94B403C136D107C9F70E94A902BB
:100110000C94BF030C940000CF92DF92EF92FF92F9
:100120000F931F93CF93DF936C017A018B01C0E093
:10013000D0E0CE15DF0589F0D8016D918D01D60193
:10014000ED91FC910190F081E02DC6010995892B7C
:1001500011F47E0102C02196ECCFC701DF91CF914F
:100160001F910F91FF90EF90DF90CF900895089529
:1001700080E090E00895FC01538D448D252F30E000
:10018000842F90E0821B930B541710F0CF960895A4
:1001900001970895FC01918D828D981761F0828DF1
:1001A000DF01A80FB11D5D968C91928D9F5F9F73AB
:1001B000928F90E008958FEF9FEF0895FC01918D4D
:1001C000828D981731F0828DE80FF11D858D90E0BA
:1001D00008958FEF9FEF0895FC01918D228D892F57
:1001E00090E0805C9F4F821B91098F73992708953F
:1001F00089E391E00E94EC0021E0892B09F420E0E2
:10020000822F0895FC01848DDF01A80FB11DA35A30
:10021000BF4F2C91848D90E001968F739927848F26
:10022000A689B7892C93A089B1898C9180648C931D
:10023000938D848D981306C00288F389E02D808108
:100240008F7D80830895EF92FF920F931F93CF933A
:10025000DF93EC0181E0888F9B8D8C8D981305C016
:10026000E889F989808185FD24C0F62E0B8D10E088
:100270000F5F1F4F0F731127E02E8C8DE8120CC0FB
:100280000FB607FCFACFE889F989808185FFF5CFA1
:10029000CE010E940201F1CF8B8DFE01E80FF11D0E
:1002A000E35AFF4FF0820B8FEA89FB8980818062DD
:1002B00007C0EE89FF896083E889F98980818064BD
:1002C000808381E090E0DF91CF911F910F91FF90AB
:1002D000EF900895CF93DF93EC01888D8823C9F0C8
:1002E000EA89FB89808185FD05C0A889B9898C913F
:1002F00086FD0FC00FB607FCF5CF808185FFF2CFDA
:10030000A889B9898C9185FFEDCFCE010E940201A9
:10031000E7CFDF91CF91089580E090E0892B29F01D
:100320000E94F80081110C9400000895833081F040
:1003300028F4813099F08230A1F008958730A9F037
:100340008830B9F08430D1F4809180008F7D03C073
:10035000809180008F7780938000089584B58F7797
:1003600002C084B58F7D84BD08958091B0008F77E1
:1003700003C08091B0008F7D8093B0000895CF932B
:10038000DF93EBEBF0E08491E7EAF0E0D491E3E96E
:10039000F0E0C491CC2391F081110E949601EC2FE2
:1003A000F0E0EE0FFF1FE458FF4FA591B491EC91E0
:1003B000ED2381E090E021F480E002C080E090E055
:1003C000DF91CF910895CF93DF93009779F0FC01EF
:1003D00001900020E9F73197AF01481B590BBC0190
:1003E00089E391E00E948C00EC0102C0C0E0D0E003
:1003F00042E050E062E171E089E391E00E948C000C
:100400008C0F9D1FDF91CF9108950E94BA031F9218
:100410000F920FB60F9211242F933F938F939F93B8
:10042000AF93BF938091350190913601A091370130
:10043000B09138013091340123E0230F2D3720F49F
:100440000196A11DB11D05C026E8230F0296A11D2E
:10045000B11D209334018093350190933601A09310
:100460003701B09338018091300190913101A09112
:100470003201B09133010196A11DB11D809330016D
:1004800090933101A0933201B0933301BF91AF91AA
:100490009F918F913F912F910F900FBE0F901F90C2
:1004A00018951F920F920FB60F9211242F933F931E
:1004B0004F935F936F937F938F939F93AF93BF936C
:1004C000EF93FF9389E391E00E940201FF91EF9186
:1004D000BF91AF919F918F917F916F915F914F915C
:1004E0003F912F910F900FBE0F901F9018951F9264
:1004F0000F920FB60F9211242F938F939F93EF9328
:10050000FF93E0914901F0914A018081E0914F0110
:10051000F091500182FD12C09081809152018F5F55
:100520008F7320915301821751F0E0915201F0E056
:10053000E75CFE4F958F8093520101C08081FF914F
:10054000EF919F918F912F910F900FBE0F901F9061
:100550001895789484B5826084BD84B5816084BD2B
:1005600085B5826085BD85B5816085BD80916E0051
:10057000816080936E001092810080918100826082
:1005800080938100809181008160809381008091BF
:1005900080008160809380008091B10084608093AE
:1005A000B1008091B00081608093B00080917A00AA
:1005B000846080937A0080917A00826080937A00D0
:1005C00080917A00816080937A0080917A008068BF
:1005D00080937A001092C100C7EAD0E0FE01249116
:1005E00003E910E0F8018491882399F090E0880FE6
:1005F000991FFC01E859FF4FA591B4918E589F4F68
:10060000FC01459154918FB7F8949C91292B2C9320
:100610008FBFE0914901F0914A0182E08083E0912F
:100620004501F09146011082E0914701F0914801A7
:100630008FEC808310925101E0914D01F0914E01B9
:1006400086E08083E0914B01F0914C0180818061D4
:100650008083E0914B01F0914C0180818860808320
:10066000E0914B01F0914C01808180688083E091A2
:100670004B01F0914C0180818F7D80839BEBE92EB3
:1006800090E0F92E89E391E00E94EC00892B09F4B7
:100690003BC089E391E00E94CA008D34910521F0AE
:1006A0008235910521F130C00E94BF016C01F70134
:1006B0008491FE01A490F801B490BB2029F181112E
:1006C0000E9496012B2D30E0220F331F2E583F4FF2
:1006D000F901A591B4918FB7F8949C91CD2819F0A8
:1006E000A094A92201C0A92AAC928FBF0DC00E947C
:1006F000BF01009729F0019739F484E291E002C02C
:1007000085E191E00E94E3010E948C01BBCFE9E307
:10071000F1E01382128288EE93E0A0E0B0E08483DF
:100720009583A683B78384E091E09183808385ECF1
:1007300090E09587848784EC90E09787868780ECAB
:1007400090E0918B808B81EC90E0938B828B82EC9C
:1007500090E0958B848B86EC90E0978B868B118E46
:10076000128E138E148E0895EE0FFF1F0590F491D4
:10077000E02D099481E090E0F8940C94BF03F89484
:02078000FFCFA9
:100782000000000023018C00BB006A01EC00CA00DB
:10079200DE000D0A004C6564204465736C69676174
:1007A200646F21004C6564204C696761646F2100AD
:107E0000112484B714BE81FFF0D085E080938100F7
:107E100082E08093C00088E18093C10086E0809377
:107E2000C20080E18093C4008EE0C9D0259A86E02C
:107E300020E33CEF91E0309385002093840096BBD3
:107E4000B09BFECF1D9AA8958150A9F7CC24DD24C4
:107E500088248394B5E0AB2EA1E19A2EF3E0BF2EE7
:107E6000A2D0813461F49FD0082FAFD0023811F036
:107E7000013811F484E001C083E08DD089C08234E0
:107E800011F484E103C0853419F485E0A6D080C0E4
:107E9000853579F488D0E82EFF2485D0082F10E0AE
:107EA000102F00270E291F29000F111F8ED06801E7
:107EB0006FC0863521F484E090D080E0DECF843638
:107EC00009F040C070D06FD0082F6DD080E0C81688
:107ED00080E7D80618F4F601B7BEE895C0E0D1E017
:107EE00062D089930C17E1F7F0E0CF16F0E7DF06D8
:107EF00018F0F601B7BEE89568D007B600FCFDCFD4
:107F0000A601A0E0B1E02C9130E011968C91119780
:107F100090E0982F8827822B932B1296FA010C0160
:107F200087BEE89511244E5F5F4FF1E0A038BF0790
:107F300051F7F601A7BEE89507B600FCFDCF97BE46
:107F4000E89526C08437B1F42ED02DD0F82E2BD052
:107F50003CD0F601EF2C8F010F5F1F4F84911BD097
:107F6000EA94F801C1F70894C11CD11CFA94CF0C13
:107F7000D11C0EC0853739F428D08EE10CD085E9AC
:107F80000AD08FE07ACF813511F488E018D01DD067
:107F900080E101D065CF982F8091C00085FFFCCF94
:107FA0009093C60008958091C00087FFFCCF809118
:107FB000C00084FD01C0A8958091C6000895E0E648
:107FC000F0E098E1908380830895EDDF803219F02E
:107FD00088E0F5DFFFCF84E1DECF1F93182FE3DFCA
:107FE0001150E9F7F2DF1F91089580E0E8DFEE27F6
:047FF000FF270994CA
:027FFE00040479
:0400000300007E007B
:00000001FF